{
  "contractName": "FoodChain",
  "abi": [
    {
      "inputs": [],
      "stateMutability": "nonpayable",
      "type": "constructor"
    },
    {
      "anonymous": false,
      "inputs": [
        {
          "indexed": true,
          "internalType": "address",
          "name": "customerId",
          "type": "address"
        },
        {
          "indexed": false,
          "internalType": "string",
          "name": "name",
          "type": "string"
        },
        {
          "indexed": false,
          "internalType": "uint256",
          "name": "totalOrders",
          "type": "uint256"
        }
      ],
      "name": "CustomerRegistered",
      "type": "event"
    },
    {
      "anonymous": false,
      "inputs": [
        {
          "indexed": false,
          "internalType": "string",
          "name": "_message",
          "type": "string"
        }
      ],
      "name": "FoodChain_deployed",
      "type": "event"
    },
    {
      "anonymous": false,
      "inputs": [
        {
          "indexed": true,
          "internalType": "address",
          "name": "manufacturerId",
          "type": "address"
        },
        {
          "indexed": false,
          "internalType": "string",
          "name": "name",
          "type": "string"
        }
      ],
      "name": "ManufacturerRegistered",
      "type": "event"
    },
    {
      "anonymous": false,
      "inputs": [
        {
          "indexed": false,
          "internalType": "uint256",
          "name": "_productId",
          "type": "uint256"
        },
        {
          "indexed": false,
          "internalType": "address",
          "name": "_manufacturerAddress",
          "type": "address"
        },
        {
          "indexed": false,
          "internalType": "uint256",
          "name": "_time",
          "type": "uint256"
        }
      ],
      "name": "Product_Added",
      "type": "event"
    },
    {
      "anonymous": false,
      "inputs": [
        {
          "indexed": false,
          "internalType": "uint256",
          "name": "_productId",
          "type": "uint256"
        },
        {
          "indexed": false,
          "internalType": "address",
          "name": "_manufacturerAddress",
          "type": "address"
        },
        {
          "indexed": false,
          "internalType": "address",
          "name": "_retailerAddress",
          "type": "address"
        },
        {
          "indexed": false,
          "internalType": "uint256",
          "name": "_time",
          "type": "uint256"
        }
      ],
      "name": "Product_Released",
      "type": "event"
    },
    {
      "anonymous": false,
      "inputs": [
        {
          "indexed": false,
          "internalType": "uint256",
          "name": "_productId",
          "type": "uint256"
        },
        {
          "indexed": false,
          "internalType": "address",
          "name": "_retailerAddress",
          "type": "address"
        },
        {
          "indexed": false,
          "internalType": "address",
          "name": "_customerAddress",
          "type": "address"
        },
        {
          "indexed": false,
          "internalType": "uint256",
          "name": "_time",
          "type": "uint256"
        }
      ],
      "name": "Product_Sold",
      "type": "event"
    },
    {
      "anonymous": false,
      "inputs": [
        {
          "indexed": true,
          "internalType": "address",
          "name": "retailerId",
          "type": "address"
        },
        {
          "indexed": false,
          "internalType": "string",
          "name": "name",
          "type": "string"
        }
      ],
      "name": "RetailerRegistered",
      "type": "event"
    },
    {
      "inputs": [
        {
          "internalType": "uint256",
          "name": "",
          "type": "uint256"
        },
        {
          "internalType": "uint256",
          "name": "",
          "type": "uint256"
        }
      ],
      "name": "Product_Retailers",
      "outputs": [
        {
          "internalType": "address",
          "name": "",
          "type": "address"
        }
      ],
      "stateMutability": "view",
      "type": "function"
    },
    {
      "inputs": [
        {
          "internalType": "address",
          "name": "",
          "type": "address"
        },
        {
          "internalType": "uint256",
          "name": "",
          "type": "uint256"
        }
      ],
      "name": "customer_orders",
      "outputs": [
        {
          "internalType": "uint256",
          "name": "",
          "type": "uint256"
        }
      ],
      "stateMutability": "view",
      "type": "function"
    },
    {
      "inputs": [
        {
          "internalType": "address",
          "name": "",
          "type": "address"
        }
      ],
      "name": "customers",
      "outputs": [
        {
          "internalType": "address",
          "name": "id",
          "type": "address"
        },
        {
          "internalType": "string",
          "name": "name",
          "type": "string"
        },
        {
          "internalType": "uint256",
          "name": "total_orders",
          "type": "uint256"
        }
      ],
      "stateMutability": "view",
      "type": "function"
    },
    {
      "inputs": [
        {
          "internalType": "address",
          "name": "",
          "type": "address"
        },
        {
          "internalType": "uint256",
          "name": "",
          "type": "uint256"
        }
      ],
      "name": "manufacturer_inventory",
      "outputs": [
        {
          "internalType": "uint256",
          "name": "",
          "type": "uint256"
        }
      ],
      "stateMutability": "view",
      "type": "function"
    },
    {
      "inputs": [
        {
          "internalType": "address",
          "name": "",
          "type": "address"
        }
      ],
      "name": "manufacturers",
      "outputs": [
        {
          "internalType": "address",
          "name": "id",
          "type": "address"
        },
        {
          "internalType": "string",
          "name": "name",
          "type": "string"
        },
        {
          "internalType": "uint256",
          "name": "total_products",
          "type": "uint256"
        }
      ],
      "stateMutability": "view",
      "type": "function"
    },
    {
      "inputs": [
        {
          "internalType": "uint256",
          "name": "",
          "type": "uint256"
        }
      ],
      "name": "products",
      "outputs": [
        {
          "internalType": "uint256",
          "name": "id",
          "type": "uint256"
        },
        {
          "internalType": "string",
          "name": "name",
          "type": "string"
        },
        {
          "internalType": "uint256",
          "name": "price",
          "type": "uint256"
        },
        {
          "internalType": "string",
          "name": "ipfs_hash",
          "type": "string"
        },
        {
          "internalType": "enum FoodChain.Stage",
          "name": "stage",
          "type": "uint8"
        },
        {
          "internalType": "address",
          "name": "manufacturer",
          "type": "address"
        },
        {
          "internalType": "uint256",
          "name": "total_retailers",
          "type": "uint256"
        },
        {
          "internalType": "address",
          "name": "customer",
          "type": "address"
        },
        {
          "internalType": "address",
          "name": "currentOwner",
          "type": "address"
        }
      ],
      "stateMutability": "view",
      "type": "function"
    },
    {
      "inputs": [
        {
          "internalType": "address",
          "name": "",
          "type": "address"
        },
        {
          "internalType": "uint256",
          "name": "",
          "type": "uint256"
        }
      ],
      "name": "retailer_inventory",
      "outputs": [
        {
          "internalType": "uint256",
          "name": "",
          "type": "uint256"
        }
      ],
      "stateMutability": "view",
      "type": "function"
    },
    {
      "inputs": [
        {
          "internalType": "address",
          "name": "",
          "type": "address"
        }
      ],
      "name": "retailers",
      "outputs": [
        {
          "internalType": "address",
          "name": "id",
          "type": "address"
        },
        {
          "internalType": "string",
          "name": "name",
          "type": "string"
        },
        {
          "internalType": "uint256",
          "name": "total_products",
          "type": "uint256"
        }
      ],
      "stateMutability": "view",
      "type": "function"
    },
    {
      "inputs": [],
      "name": "total_products",
      "outputs": [
        {
          "internalType": "uint256",
          "name": "",
          "type": "uint256"
        }
      ],
      "stateMutability": "view",
      "type": "function"
    },
    {
      "inputs": [],
      "name": "getProducts",
      "outputs": [
        {
          "components": [
            {
              "internalType": "uint256",
              "name": "id",
              "type": "uint256"
            },
            {
              "internalType": "string",
              "name": "name",
              "type": "string"
            },
            {
              "internalType": "uint256",
              "name": "price",
              "type": "uint256"
            },
            {
              "internalType": "string",
              "name": "ipfs_hash",
              "type": "string"
            },
            {
              "internalType": "enum FoodChain.Stage",
              "name": "stage",
              "type": "uint8"
            },
            {
              "internalType": "address",
              "name": "manufacturer",
              "type": "address"
            },
            {
              "internalType": "uint256",
              "name": "total_retailers",
              "type": "uint256"
            },
            {
              "internalType": "address",
              "name": "customer",
              "type": "address"
            },
            {
              "internalType": "address",
              "name": "currentOwner",
              "type": "address"
            }
          ],
          "internalType": "struct FoodChain.Product[]",
          "name": "",
          "type": "tuple[]"
        }
      ],
      "stateMutability": "view",
      "type": "function"
    },
    {
      "inputs": [
        {
          "internalType": "string",
          "name": "_name",
          "type": "string"
        }
      ],
      "name": "addManufacturer",
      "outputs": [
        {
          "components": [
            {
              "internalType": "address",
              "name": "id",
              "type": "address"
            },
            {
              "internalType": "string",
              "name": "name",
              "type": "string"
            },
            {
              "internalType": "uint256",
              "name": "total_products",
              "type": "uint256"
            }
          ],
          "internalType": "struct FoodChain.Manufacturer",
          "name": "",
          "type": "tuple"
        }
      ],
      "stateMutability": "payable",
      "type": "function"
    },
    {
      "inputs": [
        {
          "internalType": "string",
          "name": "_name",
          "type": "string"
        }
      ],
      "name": "addRetailer",
      "outputs": [
        {
          "components": [
            {
              "internalType": "address",
              "name": "id",
              "type": "address"
            },
            {
              "internalType": "string",
              "name": "name",
              "type": "string"
            },
            {
              "internalType": "uint256",
              "name": "total_products",
              "type": "uint256"
            }
          ],
          "internalType": "struct FoodChain.Retailer",
          "name": "",
          "type": "tuple"
        }
      ],
      "stateMutability": "payable",
      "type": "function"
    },
    {
      "inputs": [
        {
          "internalType": "string",
          "name": "_name",
          "type": "string"
        }
      ],
      "name": "addCustomer",
      "outputs": [
        {
          "components": [
            {
              "internalType": "address",
              "name": "id",
              "type": "address"
            },
            {
              "internalType": "string",
              "name": "name",
              "type": "string"
            },
            {
              "internalType": "uint256",
              "name": "total_orders",
              "type": "uint256"
            }
          ],
          "internalType": "struct FoodChain.Customer",
          "name": "",
          "type": "tuple"
        }
      ],
      "stateMutability": "nonpayable",
      "type": "function"
    },
    {
      "inputs": [
        {
          "internalType": "string",
          "name": "_name",
          "type": "string"
        },
        {
          "internalType": "uint256",
          "name": "_price",
          "type": "uint256"
        },
        {
          "internalType": "string",
          "name": "_ipfs_hash",
          "type": "string"
        },
        {
          "internalType": "uint256",
          "name": "_time",
          "type": "uint256"
        }
      ],
      "name": "addProduct",
      "outputs": [
        {
          "components": [
            {
              "internalType": "uint256",
              "name": "id",
              "type": "uint256"
            },
            {
              "internalType": "string",
              "name": "name",
              "type": "string"
            },
            {
              "internalType": "uint256",
              "name": "price",
              "type": "uint256"
            },
            {
              "internalType": "string",
              "name": "ipfs_hash",
              "type": "string"
            },
            {
              "internalType": "enum FoodChain.Stage",
              "name": "stage",
              "type": "uint8"
            },
            {
              "internalType": "address",
              "name": "manufacturer",
              "type": "address"
            },
            {
              "internalType": "uint256",
              "name": "total_retailers",
              "type": "uint256"
            },
            {
              "internalType": "address",
              "name": "customer",
              "type": "address"
            },
            {
              "internalType": "address",
              "name": "currentOwner",
              "type": "address"
            }
          ],
          "internalType": "struct FoodChain.Product",
          "name": "",
          "type": "tuple"
        }
      ],
      "stateMutability": "payable",
      "type": "function"
    },
    {
      "inputs": [
        {
          "internalType": "uint256",
          "name": "_productId",
          "type": "uint256"
        },
        {
          "internalType": "uint256",
          "name": "_time",
          "type": "uint256"
        }
      ],
      "name": "releaseProduct",
      "outputs": [
        {
          "components": [
            {
              "internalType": "uint256",
              "name": "id",
              "type": "uint256"
            },
            {
              "internalType": "string",
              "name": "name",
              "type": "string"
            },
            {
              "internalType": "uint256",
              "name": "price",
              "type": "uint256"
            },
            {
              "internalType": "string",
              "name": "ipfs_hash",
              "type": "string"
            },
            {
              "internalType": "enum FoodChain.Stage",
              "name": "stage",
              "type": "uint8"
            },
            {
              "internalType": "address",
              "name": "manufacturer",
              "type": "address"
            },
            {
              "internalType": "uint256",
              "name": "total_retailers",
              "type": "uint256"
            },
            {
              "internalType": "address",
              "name": "customer",
              "type": "address"
            },
            {
              "internalType": "address",
              "name": "currentOwner",
              "type": "address"
            }
          ],
          "internalType": "struct FoodChain.Product",
          "name": "",
          "type": "tuple"
        }
      ],
      "stateMutability": "payable",
      "type": "function"
    },
    {
      "inputs": [
        {
          "internalType": "uint256",
          "name": "_productId",
          "type": "uint256"
        },
        {
          "internalType": "uint256",
          "name": "_time",
          "type": "uint256"
        }
      ],
      "name": "buyProduct",
      "outputs": [
        {
          "components": [
            {
              "internalType": "uint256",
              "name": "id",
              "type": "uint256"
            },
            {
              "internalType": "string",
              "name": "name",
              "type": "string"
            },
            {
              "internalType": "uint256",
              "name": "price",
              "type": "uint256"
            },
            {
              "internalType": "string",
              "name": "ipfs_hash",
              "type": "string"
            },
            {
              "internalType": "enum FoodChain.Stage",
              "name": "stage",
              "type": "uint8"
            },
            {
              "internalType": "address",
              "name": "manufacturer",
              "type": "address"
            },
            {
              "internalType": "uint256",
              "name": "total_retailers",
              "type": "uint256"
            },
            {
              "internalType": "address",
              "name": "customer",
              "type": "address"
            },
            {
              "internalType": "address",
              "name": "currentOwner",
              "type": "address"
            }
          ],
          "internalType": "struct FoodChain.Product",
          "name": "",
          "type": "tuple"
        }
      ],
      "stateMutability": "payable",
      "type": "function"
    },
    {
      "inputs": [
        {
          "internalType": "address",
          "name": "_manufacturerId",
          "type": "address"
        }
      ],
      "name": "getManufacturerDetails",
      "outputs": [
        {
          "components": [
            {
              "internalType": "address",
              "name": "id",
              "type": "address"
            },
            {
              "internalType": "string",
              "name": "name",
              "type": "string"
            },
            {
              "internalType": "uint256",
              "name": "total_products",
              "type": "uint256"
            }
          ],
          "internalType": "struct FoodChain.Manufacturer",
          "name": "",
          "type": "tuple"
        }
      ],
      "stateMutability": "view",
      "type": "function"
    },
    {
      "inputs": [
        {
          "internalType": "address",
          "name": "_manufacturerId",
          "type": "address"
        }
      ],
      "name": "getManufacturerInventory",
      "outputs": [
        {
          "internalType": "uint256[]",
          "name": "",
          "type": "uint256[]"
        }
      ],
      "stateMutability": "view",
      "type": "function"
    },
    {
      "inputs": [
        {
          "internalType": "address",
          "name": "_retailerId",
          "type": "address"
        }
      ],
      "name": "getRetailerDetails",
      "outputs": [
        {
          "components": [
            {
              "internalType": "address",
              "name": "id",
              "type": "address"
            },
            {
              "internalType": "string",
              "name": "name",
              "type": "string"
            },
            {
              "internalType": "uint256",
              "name": "total_products",
              "type": "uint256"
            }
          ],
          "internalType": "struct FoodChain.Retailer",
          "name": "",
          "type": "tuple"
        }
      ],
      "stateMutability": "view",
      "type": "function"
    },
    {
      "inputs": [
        {
          "internalType": "address",
          "name": "_retailerId",
          "type": "address"
        }
      ],
      "name": "getRetailerInventory",
      "outputs": [
        {
          "internalType": "uint256[]",
          "name": "",
          "type": "uint256[]"
        }
      ],
      "stateMutability": "view",
      "type": "function"
    },
    {
      "inputs": [
        {
          "internalType": "address",
          "name": "_customerId",
          "type": "address"
        }
      ],
      "name": "getCustomerDetails",
      "outputs": [
        {
          "components": [
            {
              "internalType": "address",
              "name": "id",
              "type": "address"
            },
            {
              "internalType": "string",
              "name": "name",
              "type": "string"
            },
            {
              "internalType": "uint256",
              "name": "total_orders",
              "type": "uint256"
            }
          ],
          "internalType": "struct FoodChain.Customer",
          "name": "",
          "type": "tuple"
        }
      ],
      "stateMutability": "view",
      "type": "function"
    },
    {
      "inputs": [
        {
          "internalType": "address",
          "name": "_customerId",
          "type": "address"
        }
      ],
      "name": "getCustomerOrders",
      "outputs": [
        {
          "internalType": "uint256[]",
          "name": "",
          "type": "uint256[]"
        }
      ],
      "stateMutability": "view",
      "type": "function"
    },
    {
      "inputs": [
        {
          "internalType": "uint256",
          "name": "_productId",
          "type": "uint256"
        }
      ],
      "name": "getProductDetails",
      "outputs": [
        {
          "components": [
            {
              "internalType": "uint256",
              "name": "id",
              "type": "uint256"
            },
            {
              "internalType": "string",
              "name": "name",
              "type": "string"
            },
            {
              "internalType": "uint256",
              "name": "price",
              "type": "uint256"
            },
            {
              "internalType": "string",
              "name": "ipfs_hash",
              "type": "string"
            },
            {
              "internalType": "enum FoodChain.Stage",
              "name": "stage",
              "type": "uint8"
            },
            {
              "internalType": "address",
              "name": "manufacturer",
              "type": "address"
            },
            {
              "internalType": "uint256",
              "name": "total_retailers",
              "type": "uint256"
            },
            {
              "internalType": "address",
              "name": "customer",
              "type": "address"
            },
            {
              "internalType": "address",
              "name": "currentOwner",
              "type": "address"
            }
          ],
          "internalType": "struct FoodChain.Product",
          "name": "",
          "type": "tuple"
        },
        {
          "components": [
            {
              "internalType": "address",
              "name": "id",
              "type": "address"
            },
            {
              "internalType": "string",
              "name": "name",
              "type": "string"
            },
            {
              "internalType": "uint256",
              "name": "total_products",
              "type": "uint256"
            }
          ],
          "internalType": "struct FoodChain.Retailer[]",
          "name": "",
          "type": "tuple[]"
        },
        {
          "components": [
            {
              "internalType": "address",
              "name": "id",
              "type": "address"
            },
            {
              "internalType": "string",
              "name": "name",
              "type": "string"
            },
            {
              "internalType": "uint256",
              "name": "total_products",
              "type": "uint256"
            }
          ],
          "internalType": "struct FoodChain.Manufacturer",
          "name": "",
          "type": "tuple"
        },
        {
          "components": [
            {
              "internalType": "address",
              "name": "id",
              "type": "address"
            },
            {
              "internalType": "string",
              "name": "name",
              "type": "string"
            },
            {
              "internalType": "uint256",
              "name": "total_orders",
              "type": "uint256"
            }
          ],
          "internalType": "struct FoodChain.Customer",
          "name": "",
          "type": "tuple"
        }
      ],
      "stateMutability": "view",
      "type": "function"
    },
    {
      "inputs": [
        {
          "internalType": "uint256",
          "name": "_productId",
          "type": "uint256"
        }
      ],
      "name": "getCurrentStatus",
      "outputs": [
        {
          "internalType": "enum FoodChain.Stage",
          "name": "",
          "type": "uint8"
        },
        {
          "internalType": "address",
          "name": "",
          "type": "address"
        },
        {
          "components": [
            {
              "internalType": "address",
              "name": "id",
              "type": "address"
            },
            {
              "internalType": "string",
              "name": "name",
              "type": "string"
            },
            {
              "internalType": "uint256",
              "name": "total_products",
              "type": "uint256"
            }
          ],
          "internalType": "struct FoodChain.Manufacturer",
          "name": "",
          "type": "tuple"
        },
        {
          "components": [
            {
              "internalType": "address",
              "name": "id",
              "type": "address"
            },
            {
              "internalType": "string",
              "name": "name",
              "type": "string"
            },
            {
              "internalType": "uint256",
              "name": "total_orders",
              "type": "uint256"
            }
          ],
          "internalType": "struct FoodChain.Customer",
          "name": "",
          "type": "tuple"
        },
        {
          "components": [
            {
              "internalType": "address",
              "name": "id",
              "type": "address"
            },
            {
              "internalType": "string",
              "name": "name",
              "type": "string"
            },
            {
              "internalType": "uint256",
              "name": "total_products",
              "type": "uint256"
            }
          ],
          "internalType": "struct FoodChain.Retailer",
          "name": "",
          "type": "tuple"
        }
      ],
      "stateMutability": "view",
      "type": "function"
    },
    {
      "inputs": [
        {
          "internalType": "address",
          "name": "_user",
          "type": "address"
        }
      ],
      "name": "getUserType",
      "outputs": [
        {
          "internalType": "enum FoodChain.Role",
          "name": "",
          "type": "uint8"
        }
      ],
      "stateMutability": "view",
      "type": "function"
    }
  ],
  "bytecode": "0x60806040523480156200001157600080fd5b50600080819055507fe3ebd12a3544f9392f0fe44e02f17401f91079a9fdba0cbcadb91059d5a48d6a6040516200004890620000b7565b60405180910390a1620000d9565b600082825260208201905092915050565b7f4465547261636520686173206265656e206465706c6f79656400000000000000600082015250565b60006200009f60198362000056565b9150620000ac8262000067565b602082019050919050565b60006020820190508181036000830152620000d28162000090565b9050919050565b615fe480620000e96000396000f3fe6080604052600436106101665760003560e01c80636813b53b116100d15780638f5ae7991161008a5780639a268f35116100645780639a268f3514610628578063a0aa13c614610667578063c29b2f20146106a8578063c41381a9146106d357610166565b80638f5ae7991461058b57806395d00407146105bb57806398383922146105eb57610166565b80636813b53b146104225780636b5eb09c146104625780637acc0b20146104a15780637efa6959146104e65780638ab7bada146105115780638b3f863f1461054e57610166565b80633a2a925c116101235780633a2a925c146102ce57806345b74c17146102fe578063482f63da1461033b57806353b628661461037857806356504026146103a857806363ba8315146103e557610166565b806303dd3d811461016b5780630458c5d7146101a85780630c60f83d146101d857806322713cc71461021557806322f974d214610252578063336989ae1461028f575b600080fd5b34801561017757600080fd5b50610192600480360381019061018d9190614be4565b610710565b60405161019f9190614d5f565b60405180910390f35b6101c260048036038101906101bd9190614dad565b6108fd565b6040516101cf9190614f30565b60405180910390f35b3480156101e457600080fd5b506101ff60048036038101906101fa9190614f7e565b6115b1565b60405161020c9190614d5f565b60405180910390f35b34801561022157600080fd5b5061023c60048036038101906102379190614f7e565b611702565b6040516102499190614ffb565b60405180910390f35b34801561025e57600080fd5b5061027960048036038101906102749190614f7e565b611853565b60405161028691906150cc565b60405180910390f35b34801561029b57600080fd5b506102b660048036038101906102b19190614f7e565b6118f0565b6040516102c593929190615156565b60405180910390f35b6102e860048036038101906102e39190615194565b6119c2565b6040516102f59190614f30565b60405180910390f35b34801561030a57600080fd5b5061032560048036038101906103209190614f7e565b6120dd565b60405161033291906150cc565b60405180910390f35b34801561034757600080fd5b50610362600480360381019061035d9190615233565b61217a565b60405161036f9190615273565b60405180910390f35b610392600480360381019061038d9190614dad565b6121ab565b60405161039f9190614f30565b60405180910390f35b3480156103b457600080fd5b506103cf60048036038101906103ca9190615233565b61301e565b6040516103dc9190615273565b60405180910390f35b3480156103f157600080fd5b5061040c60048036038101906104079190614f7e565b61304f565b60405161041991906152de565b60405180910390f35b34801561042e57600080fd5b5061044960048036038101906104449190615300565b6131a0565b604051610459949392919061543f565b60405180910390f35b34801561046e57600080fd5b5061048960048036038101906104849190614f7e565b6135fe565b60405161049893929190615156565b60405180910390f35b3480156104ad57600080fd5b506104c860048036038101906104c39190615300565b6136d0565b6040516104dd999897969594939291906154af565b60405180910390f35b3480156104f257600080fd5b506104fb6138ab565b6040516105089190615273565b60405180910390f35b34801561051d57600080fd5b5061053860048036038101906105339190615233565b6138b1565b6040516105459190615273565b60405180910390f35b34801561055a57600080fd5b5061057560048036038101906105709190614f7e565b6138e2565b6040516105829190615592565b60405180910390f35b6105a560048036038101906105a09190614be4565b613aca565b6040516105b29190614ffb565b60405180910390f35b6105d560048036038101906105d09190614be4565b613cbf565b6040516105e291906152de565b60405180910390f35b3480156105f757600080fd5b50610612600480360381019061060d9190614f7e565b613eb4565b60405161061f91906150cc565b60405180910390f35b34801561063457600080fd5b5061064f600480360381019061064a9190614f7e565b613f51565b60405161065e93929190615156565b60405180910390f35b34801561067357600080fd5b5061068e60048036038101906106899190615300565b614023565b60405161069f9594939291906155ad565b60405180910390f35b3480156106b457600080fd5b506106bd614423565b6040516106ca91906157a3565b60405180910390f35b3480156106df57600080fd5b506106fa60048036038101906106f59190614dad565b614702565b60405161070791906157c5565b60405180910390f35b6107186147fe565b6000600460003373ffffffffffffffffffffffffffffffffffffffff1673ffffffffffffffffffffffffffffffffffffffff16815260200190815260200160002060010180546107679061580f565b9050146107a9576040517f08c379a00000000000000000000000000000000000000000000000000000000081526004016107a0906158b2565b60405180910390fd5b6107b16147fe565b33816000019073ffffffffffffffffffffffffffffffffffffffff16908173ffffffffffffffffffffffffffffffffffffffff168152505082816020018190525080600460003373ffffffffffffffffffffffffffffffffffffffff1673ffffffffffffffffffffffffffffffffffffffff16815260200190815260200160002060008201518160000160006101000a81548173ffffffffffffffffffffffffffffffffffffffff021916908373ffffffffffffffffffffffffffffffffffffffff1602179055506020820151816001019080519060200190610895929190614835565b50604082015181600201559050503373ffffffffffffffffffffffffffffffffffffffff167ffc41c8b58828ffbe458a2b36ce353bcdb9f2e4426e37442cf1bb2b1d6c4ea42c8460006040516108ec929190615917565b60405180910390a280915050919050565b6109056148bb565b33600073ffffffffffffffffffffffffffffffffffffffff16600360008373ffffffffffffffffffffffffffffffffffffffff1673ffffffffffffffffffffffffffffffffffffffff16815260200190815260200160002060000160009054906101000a900473ffffffffffffffffffffffffffffffffffffffff1673ffffffffffffffffffffffffffffffffffffffff16036109d7576040517f08c379a00000000000000000000000000000000000000000000000000000000081526004016109ce906159b9565b60405180910390fd5b6000548410610a1b576040517f08c379a0000000000000000000000000000000000000000000000000000000008152600401610a1290615a25565b60405180910390fd5b600060018581548110610a3157610a30615a45565b5b90600052602060002090600802016040518061012001604052908160008201548152602001600182018054610a659061580f565b80601f0160208091040260200160405190810160405280929190818152602001828054610a919061580f565b8015610ade5780601f10610ab357610100808354040283529160200191610ade565b820191906000526020600020905b815481529060010190602001808311610ac157829003601f168201915b5050505050815260200160028201548152602001600382018054610b019061580f565b80601f0160208091040260200160405190810160405280929190818152602001828054610b2d9061580f565b8015610b7a5780601f10610b4f57610100808354040283529160200191610b7a565b820191906000526020600020905b815481529060010190602001808311610b5d57829003601f168201915b505050505081526020016004820160009054906101000a900460ff166002811115610ba857610ba7614ded565b5b6002811115610bba57610bb9614ded565b5b81526020016004820160019054906101000a900473ffffffffffffffffffffffffffffffffffffffff1673ffffffffffffffffffffffffffffffffffffffff1673ffffffffffffffffffffffffffffffffffffffff168152602001600582015481526020016006820160009054906101000a900473ffffffffffffffffffffffffffffffffffffffff1673ffffffffffffffffffffffffffffffffffffffff1673ffffffffffffffffffffffffffffffffffffffff1681526020016007820160009054906101000a900473ffffffffffffffffffffffffffffffffffffffff1673ffffffffffffffffffffffffffffffffffffffff1673ffffffffffffffffffffffffffffffffffffffff1681525050905060006002811115610ce057610cdf614ded565b5b81608001516002811115610cf757610cf6614ded565b5b14610d37576040517f08c379a0000000000000000000000000000000000000000000000000000000008152600401610d2e90615ae6565b60405180910390fd5b60056000868152602001908152602001600020339080600181540180825580915050600190039060005260206000200160009091909190916101000a81548173ffffffffffffffffffffffffffffffffffffffff021916908373ffffffffffffffffffffffffffffffffffffffff1602179055508060c0018051809190610dbd90615b35565b81525050600181608001906002811115610dda57610dd9614ded565b5b90816002811115610dee57610ded614ded565b5b815250503381610100019073ffffffffffffffffffffffffffffffffffffffff16908173ffffffffffffffffffffffffffffffffffffffff16815250506000600260008360a0015173ffffffffffffffffffffffffffffffffffffffff1673ffffffffffffffffffffffffffffffffffffffff1681526020019081526020016000206040518060600160405290816000820160009054906101000a900473ffffffffffffffffffffffffffffffffffffffff1673ffffffffffffffffffffffffffffffffffffffff1673ffffffffffffffffffffffffffffffffffffffff168152602001600182018054610ee19061580f565b80601f0160208091040260200160405190810160405280929190818152602001828054610f0d9061580f565b8015610f5a5780601f10610f2f57610100808354040283529160200191610f5a565b820191906000526020600020905b815481529060010190602001808311610f3d57829003601f168201915b50505050508152602001600282015481525050905060005b816040015181101561109a5786600660008560a0015173ffffffffffffffffffffffffffffffffffffffff1673ffffffffffffffffffffffffffffffffffffffff1681526020019081526020016000208281548110610fd457610fd3615a45565b5b9060005260206000200154036110875761103081600660008660a0015173ffffffffffffffffffffffffffffffffffffffff1673ffffffffffffffffffffffffffffffffffffffff168152602001908152602001600020614750565b600660008560a0015173ffffffffffffffffffffffffffffffffffffffff1673ffffffffffffffffffffffffffffffffffffffff16815260200190815260200160002090805461108192919061495b565b5061109a565b808061109290615b35565b915050610f72565b506001816040018181516110ae9190615b7d565b9150818152505080600260008460a0015173ffffffffffffffffffffffffffffffffffffffff1673ffffffffffffffffffffffffffffffffffffffff16815260200190815260200160002060008201518160000160006101000a81548173ffffffffffffffffffffffffffffffffffffffff021916908373ffffffffffffffffffffffffffffffffffffffff160217905550602082015181600101908051906020019061115c929190614835565b5060408201518160020155905050600760003373ffffffffffffffffffffffffffffffffffffffff1673ffffffffffffffffffffffffffffffffffffffff168152602001908152602001600020826000015190806001815401808255809150506001900390600052602060002001600090919091909150556000600360003373ffffffffffffffffffffffffffffffffffffffff1673ffffffffffffffffffffffffffffffffffffffff1681526020019081526020016000206040518060600160405290816000820160009054906101000a900473ffffffffffffffffffffffffffffffffffffffff1673ffffffffffffffffffffffffffffffffffffffff1673ffffffffffffffffffffffffffffffffffffffff1681526020016001820180546112869061580f565b80601f01602080910402602001604051908101604052809291908181526020018280546112b29061580f565b80156112ff5780601f106112d4576101008083540402835291602001916112ff565b820191906000526020600020905b8154815290600101906020018083116112e257829003601f168201915b5050505050815260200160028201548152505090506001816040018181516113279190615bb1565b9150818152505080600360003373ffffffffffffffffffffffffffffffffffffffff1673ffffffffffffffffffffffffffffffffffffffff16815260200190815260200160002060008201518160000160006101000a81548173ffffffffffffffffffffffffffffffffffffffff021916908373ffffffffffffffffffffffffffffffffffffffff16021790555060208201518160010190805190602001906113d1929190614835565b506040820151816002015590505082600188815481106113f4576113f3615a45565b5b9060005260206000209060080201600082015181600001556020820151816001019080519060200190611428929190614835565b5060408201518160020155606082015181600301908051906020019061144f929190614835565b5060808201518160040160006101000a81548160ff0219169083600281111561147b5761147a614ded565b5b021790555060a08201518160040160016101000a81548173ffffffffffffffffffffffffffffffffffffffff021916908373ffffffffffffffffffffffffffffffffffffffff16021790555060c0820151816005015560e08201518160060160006101000a81548173ffffffffffffffffffffffffffffffffffffffff021916908373ffffffffffffffffffffffffffffffffffffffff1602179055506101008201518160070160006101000a81548173ffffffffffffffffffffffffffffffffffffffff021916908373ffffffffffffffffffffffffffffffffffffffff1602179055509050507fb682cb3ef1a902a3234df9dcec0308d14f06c57140df377efbca2044c5c7255b878460a00151338960405161159c9493929190615c07565b60405180910390a18294505050505092915050565b6115b96147fe565b6000600460008473ffffffffffffffffffffffffffffffffffffffff1673ffffffffffffffffffffffffffffffffffffffff1681526020019081526020016000206040518060600160405290816000820160009054906101000a900473ffffffffffffffffffffffffffffffffffffffff1673ffffffffffffffffffffffffffffffffffffffff1673ffffffffffffffffffffffffffffffffffffffff16815260200160018201805461166b9061580f565b80601f01602080910402602001604051908101604052809291908181526020018280546116979061580f565b80156116e45780601f106116b9576101008083540402835291602001916116e4565b820191906000526020600020905b8154815290600101906020018083116116c757829003601f168201915b50505050508152602001600282015481525050905080915050919050565b61170a6149ad565b6000600260008473ffffffffffffffffffffffffffffffffffffffff1673ffffffffffffffffffffffffffffffffffffffff1681526020019081526020016000206040518060600160405290816000820160009054906101000a900473ffffffffffffffffffffffffffffffffffffffff1673ffffffffffffffffffffffffffffffffffffffff1673ffffffffffffffffffffffffffffffffffffffff1681526020016001820180546117bc9061580f565b80601f01602080910402602001604051908101604052809291908181526020018280546117e89061580f565b80156118355780601f1061180a57610100808354040283529160200191611835565b820191906000526020600020905b81548152906001019060200180831161181857829003601f168201915b50505050508152602001600282015481525050905080915050919050565b60606000600860008473ffffffffffffffffffffffffffffffffffffffff1673ffffffffffffffffffffffffffffffffffffffff1681526020019081526020016000208054806020026020016040519081016040528092919081815260200182805480156118e057602002820191906000526020600020905b8154815260200190600101908083116118cc575b5050505050905080915050919050565b60046020528060005260406000206000915090508060000160009054906101000a900473ffffffffffffffffffffffffffffffffffffffff16908060010180546119399061580f565b80601f01602080910402602001604051908101604052809291908181526020018280546119659061580f565b80156119b25780601f10611987576101008083540402835291602001916119b2565b820191906000526020600020905b81548152906001019060200180831161199557829003601f168201915b5050505050908060020154905083565b6119ca6148bb565b33600073ffffffffffffffffffffffffffffffffffffffff16600260008373ffffffffffffffffffffffffffffffffffffffff1673ffffffffffffffffffffffffffffffffffffffff16815260200190815260200160002060000160009054906101000a900473ffffffffffffffffffffffffffffffffffffffff1673ffffffffffffffffffffffffffffffffffffffff1603611a9c576040517f08c379a0000000000000000000000000000000000000000000000000000000008152600401611a9390615cbe565b60405180910390fd5b600073ffffffffffffffffffffffffffffffffffffffff16600260003373ffffffffffffffffffffffffffffffffffffffff1673ffffffffffffffffffffffffffffffffffffffff16815260200190815260200160002060000160009054906101000a900473ffffffffffffffffffffffffffffffffffffffff1673ffffffffffffffffffffffffffffffffffffffff1603611b6d576040517f08c379a0000000000000000000000000000000000000000000000000000000008152600401611b6490615d50565b60405180910390fd5b6000600260003373ffffffffffffffffffffffffffffffffffffffff1673ffffffffffffffffffffffffffffffffffffffff1681526020019081526020016000206040518060600160405290816000820160009054906101000a900473ffffffffffffffffffffffffffffffffffffffff1673ffffffffffffffffffffffffffffffffffffffff1673ffffffffffffffffffffffffffffffffffffffff168152602001600182018054611c1f9061580f565b80601f0160208091040260200160405190810160405280929190818152602001828054611c4b9061580f565b8015611c985780601f10611c6d57610100808354040283529160200191611c98565b820191906000526020600020905b815481529060010190602001808311611c7b57829003601f168201915b505050505081526020016002820154815250509050611cb56148bb565b6000548160000181815250508781602001819052508681604001818152505085816060018190525081600001518160a0019073ffffffffffffffffffffffffffffffffffffffff16908173ffffffffffffffffffffffffffffffffffffffff1681525050600081608001906002811115611d3257611d31614ded565b5b90816002811115611d4657611d45614ded565b5b8152505060008160c00181815250503381610100019073ffffffffffffffffffffffffffffffffffffffff16908173ffffffffffffffffffffffffffffffffffffffff16815250506001819080600181540180825580915050600190039060005260206000209060080201600090919091909150600082015181600001556020820151816001019080519060200190611de0929190614835565b50604082015181600201556060820151816003019080519060200190611e07929190614835565b5060808201518160040160006101000a81548160ff02191690836002811115611e3357611e32614ded565b5b021790555060a08201518160040160016101000a81548173ffffffffffffffffffffffffffffffffffffffff021916908373ffffffffffffffffffffffffffffffffffffffff16021790555060c0820151816005015560e08201518160060160006101000a81548173ffffffffffffffffffffffffffffffffffffffff021916908373ffffffffffffffffffffffffffffffffffffffff1602179055506101008201518160070160006101000a81548173ffffffffffffffffffffffffffffffffffffffff021916908373ffffffffffffffffffffffffffffffffffffffff16021790555050506001600080828254611f2c9190615bb1565b92505081905550600660003373ffffffffffffffffffffffffffffffffffffffff1673ffffffffffffffffffffffffffffffffffffffff16815260200190815260200160002081600001519080600181540180825580915050600190039060005260206000200160009091909190915055600182604001818151611fb09190615bb1565b9150818152505081600260003373ffffffffffffffffffffffffffffffffffffffff1673ffffffffffffffffffffffffffffffffffffffff16815260200190815260200160002060008201518160000160006101000a81548173ffffffffffffffffffffffffffffffffffffffff021916908373ffffffffffffffffffffffffffffffffffffffff160217905550602082015181600101908051906020019061205a929190614835565b50604082015181600201559050506009600560008360000151815260200190815260200160002090805461208f9291906149e4565b507f2d7e548cd55c5877c277ad065972404b06ea61314bd4d49a46c1aaaa1d353cd7816000015133876040516120c793929190615d70565b60405180910390a1809350505050949350505050565b60606000600660008473ffffffffffffffffffffffffffffffffffffffff1673ffffffffffffffffffffffffffffffffffffffff16815260200190815260200160002080548060200260200160405190810160405280929190818152602001828054801561216a57602002820191906000526020600020905b815481526020019060010190808311612156575b5050505050905080915050919050565b6006602052816000526040600020818154811061219657600080fd5b90600052602060002001600091509150505481565b6121b36148bb565b33600073ffffffffffffffffffffffffffffffffffffffff16600460008373ffffffffffffffffffffffffffffffffffffffff1673ffffffffffffffffffffffffffffffffffffffff16815260200190815260200160002060000160009054906101000a900473ffffffffffffffffffffffffffffffffffffffff1673ffffffffffffffffffffffffffffffffffffffff1603612285576040517f08c379a000000000000000000000000000000000000000000000000000000000815260040161227c90615e19565b60405180910390fd5b60005484106122c9576040517f08c379a00000000000000000000000000000000000000000000000000000000081526004016122c090615a25565b60405180910390fd5b6000600185815481106122df576122de615a45565b5b906000526020600020906008020160405180610120016040529081600082015481526020016001820180546123139061580f565b80601f016020809104026020016040519081016040528092919081815260200182805461233f9061580f565b801561238c5780601f106123615761010080835404028352916020019161238c565b820191906000526020600020905b81548152906001019060200180831161236f57829003601f168201915b50505050508152602001600282015481526020016003820180546123af9061580f565b80601f01602080910402602001604051908101604052809291908181526020018280546123db9061580f565b80156124285780601f106123fd57610100808354040283529160200191612428565b820191906000526020600020905b81548152906001019060200180831161240b57829003601f168201915b505050505081526020016004820160009054906101000a900460ff16600281111561245657612455614ded565b5b600281111561246857612467614ded565b5b81526020016004820160019054906101000a900473ffffffffffffffffffffffffffffffffffffffff1673ffffffffffffffffffffffffffffffffffffffff1673ffffffffffffffffffffffffffffffffffffffff168152602001600582015481526020016006820160009054906101000a900473ffffffffffffffffffffffffffffffffffffffff1673ffffffffffffffffffffffffffffffffffffffff1673ffffffffffffffffffffffffffffffffffffffff1681526020016007820160009054906101000a900473ffffffffffffffffffffffffffffffffffffffff1673ffffffffffffffffffffffffffffffffffffffff1673ffffffffffffffffffffffffffffffffffffffff168152505090506001600281111561258e5761258d614ded565b5b816080015160028111156125a5576125a4614ded565b5b146125e5576040517f08c379a00000000000000000000000000000000000000000000000000000000081526004016125dc90615eab565b60405180910390fd5b6000600560008360000151815260200190815260200160002060018360c0015161260f9190615b7d565b815481106126205761261f615a45565b5b9060005260206000200160009054906101000a900473ffffffffffffffffffffffffffffffffffffffff1690506000600360008373ffffffffffffffffffffffffffffffffffffffff1673ffffffffffffffffffffffffffffffffffffffff1681526020019081526020016000206040518060600160405290816000820160009054906101000a900473ffffffffffffffffffffffffffffffffffffffff1673ffffffffffffffffffffffffffffffffffffffff1673ffffffffffffffffffffffffffffffffffffffff1681526020016001820180546126ff9061580f565b80601f016020809104026020016040519081016040528092919081815260200182805461272b9061580f565b80156127785780601f1061274d57610100808354040283529160200191612778565b820191906000526020600020905b81548152906001019060200180831161275b57829003601f168201915b5050505050815260200160028201548152505090506000600460003373ffffffffffffffffffffffffffffffffffffffff1673ffffffffffffffffffffffffffffffffffffffff1681526020019081526020016000206040518060600160405290816000820160009054906101000a900473ffffffffffffffffffffffffffffffffffffffff1673ffffffffffffffffffffffffffffffffffffffff1673ffffffffffffffffffffffffffffffffffffffff16815260200160018201805461283f9061580f565b80601f016020809104026020016040519081016040528092919081815260200182805461286b9061580f565b80156128b85780601f1061288d576101008083540402835291602001916128b8565b820191906000526020600020905b81548152906001019060200180831161289b57829003601f168201915b5050505050815260200160028201548152505090506002846080019060028111156128e6576128e5614ded565b5b908160028111156128fa576128f9614ded565b5b8152505080600001518460e0019073ffffffffffffffffffffffffffffffffffffffff16908173ffffffffffffffffffffffffffffffffffffffff16815250503384610100019073ffffffffffffffffffffffffffffffffffffffff16908173ffffffffffffffffffffffffffffffffffffffff16815250506000600560008a81526020019081526020016000206001600560008c8152602001908152602001600020805490506129ab9190615b7d565b815481106129bc576129bb615a45565b5b9060005260206000200160009054906101000a900473ffffffffffffffffffffffffffffffffffffffff1690506000600360008373ffffffffffffffffffffffffffffffffffffffff1673ffffffffffffffffffffffffffffffffffffffff1681526020019081526020016000206040518060600160405290816000820160009054906101000a900473ffffffffffffffffffffffffffffffffffffffff1673ffffffffffffffffffffffffffffffffffffffff1673ffffffffffffffffffffffffffffffffffffffff168152602001600182018054612a9b9061580f565b80601f0160208091040260200160405190810160405280929190818152602001828054612ac79061580f565b8015612b145780601f10612ae957610100808354040283529160200191612b14565b820191906000526020600020905b815481529060010190602001808311612af757829003601f168201915b50505050508152602001600282015481525050905060005b8160400151811015612c48578a600760008573ffffffffffffffffffffffffffffffffffffffff1673ffffffffffffffffffffffffffffffffffffffff1681526020019081526020016000208281548110612b8a57612b89615a45565b5b906000526020600020015403612c3557612be281600760008673ffffffffffffffffffffffffffffffffffffffff1673ffffffffffffffffffffffffffffffffffffffff168152602001908152602001600020614750565b600760008573ffffffffffffffffffffffffffffffffffffffff1673ffffffffffffffffffffffffffffffffffffffff168152602001908152602001600020908054612c2f92919061495b565b50612c48565b8080612c4090615b35565b915050612b2c565b50600181604001818151612c5c9190615b7d565b9150818152505080600360008473ffffffffffffffffffffffffffffffffffffffff1673ffffffffffffffffffffffffffffffffffffffff16815260200190815260200160002060008201518160000160006101000a81548173ffffffffffffffffffffffffffffffffffffffff021916908373ffffffffffffffffffffffffffffffffffffffff1602179055506020820151816001019080519060200190612d06929190614835565b5060408201518160020155905050600860003373ffffffffffffffffffffffffffffffffffffffff1673ffffffffffffffffffffffffffffffffffffffff16815260200190815260200160002086600001519080600181540180825580915050600190039060005260206000200160009091909190915055600183604001818151612d919190615bb1565b9150818152505082600460003373ffffffffffffffffffffffffffffffffffffffff1673ffffffffffffffffffffffffffffffffffffffff16815260200190815260200160002060008201518160000160006101000a81548173ffffffffffffffffffffffffffffffffffffffff021916908373ffffffffffffffffffffffffffffffffffffffff1602179055506020820151816001019080519060200190612e3b929190614835565b50604082015181600201559050508560018b81548110612e5e57612e5d615a45565b5b9060005260206000209060080201600082015181600001556020820151816001019080519060200190612e92929190614835565b50604082015181600201556060820151816003019080519060200190612eb9929190614835565b5060808201518160040160006101000a81548160ff02191690836002811115612ee557612ee4614ded565b5b021790555060a08201518160040160016101000a81548173ffffffffffffffffffffffffffffffffffffffff021916908373ffffffffffffffffffffffffffffffffffffffff16021790555060c0820151816005015560e08201518160060160006101000a81548173ffffffffffffffffffffffffffffffffffffffff021916908373ffffffffffffffffffffffffffffffffffffffff1602179055506101008201518160070160006101000a81548173ffffffffffffffffffffffffffffffffffffffff021916908373ffffffffffffffffffffffffffffffffffffffff1602179055509050507f19800d2adcaee3f3c61c7f1bb2b073caf7d1c09ff1ece9e293c93778448c27b28a8560000151338c6040516130069493929190615c07565b60405180910390a18597505050505050505092915050565b6008602052816000526040600020818154811061303a57600080fd5b90600052602060002001600091509150505481565b613057614a36565b6000600360008473ffffffffffffffffffffffffffffffffffffffff1673ffffffffffffffffffffffffffffffffffffffff1681526020019081526020016000206040518060600160405290816000820160009054906101000a900473ffffffffffffffffffffffffffffffffffffffff1673ffffffffffffffffffffffffffffffffffffffff1673ffffffffffffffffffffffffffffffffffffffff1681526020016001820180546131099061580f565b80601f01602080910402602001604051908101604052809291908181526020018280546131359061580f565b80156131825780601f1061315757610100808354040283529160200191613182565b820191906000526020600020905b81548152906001019060200180831161316557829003601f168201915b50505050508152602001600282015481525050905080915050919050565b6131a86148bb565b60606131b26149ad565b6131ba6147fe565b6000600186815481106131d0576131cf615a45565b5b906000526020600020906008020160405180610120016040529081600082015481526020016001820180546132049061580f565b80601f01602080910402602001604051908101604052809291908181526020018280546132309061580f565b801561327d5780601f106132525761010080835404028352916020019161327d565b820191906000526020600020905b81548152906001019060200180831161326057829003601f168201915b50505050508152602001600282015481526020016003820180546132a09061580f565b80601f01602080910402602001604051908101604052809291908181526020018280546132cc9061580f565b80156133195780601f106132ee57610100808354040283529160200191613319565b820191906000526020600020905b8154815290600101906020018083116132fc57829003601f168201915b505050505081526020016004820160009054906101000a900460ff16600281111561334757613346614ded565b5b600281111561335957613358614ded565b5b81526020016004820160019054906101000a900473ffffffffffffffffffffffffffffffffffffffff1673ffffffffffffffffffffffffffffffffffffffff1673ffffffffffffffffffffffffffffffffffffffff168152602001600582015481526020016006820160009054906101000a900473ffffffffffffffffffffffffffffffffffffffff1673ffffffffffffffffffffffffffffffffffffffff1673ffffffffffffffffffffffffffffffffffffffff1681526020016007820160009054906101000a900473ffffffffffffffffffffffffffffffffffffffff1673ffffffffffffffffffffffffffffffffffffffff1673ffffffffffffffffffffffffffffffffffffffff1681525050905060006005600088815260200190815260200160002080548060200260200160405190810160405280929190818152602001828054801561350057602002820191906000526020600020905b8160009054906101000a900473ffffffffffffffffffffffffffffffffffffffff1673ffffffffffffffffffffffffffffffffffffffff16815260200190600101908083116134b6575b5050505050905060008260c0015167ffffffffffffffff81111561352757613526614ab9565b5b60405190808252806020026020018201604052801561356057816020015b61354d614a36565b8152602001906001900390816135455790505b50905060006135728460a00151611702565b905060006135838560e001516115b1565b905060005b84518110156135e5576135b48582815181106135a7576135a6615a45565b5b602002602001015161304f565b8482815181106135c7576135c6615a45565b5b602002602001018190525080806135dd90615b35565b915050613588565b5084838383985098509850985050505050509193509193565b60026020528060005260406000206000915090508060000160009054906101000a900473ffffffffffffffffffffffffffffffffffffffff16908060010180546136479061580f565b80601f01602080910402602001604051908101604052809291908181526020018280546136739061580f565b80156136c05780601f10613695576101008083540402835291602001916136c0565b820191906000526020600020905b8154815290600101906020018083116136a357829003601f168201915b5050505050908060020154905083565b600181815481106136e057600080fd5b90600052602060002090600802016000915090508060000154908060010180546137099061580f565b80601f01602080910402602001604051908101604052809291908181526020018280546137359061580f565b80156137825780601f1061375757610100808354040283529160200191613782565b820191906000526020600020905b81548152906001019060200180831161376557829003601f168201915b50505050509080600201549080600301805461379d9061580f565b80601f01602080910402602001604051908101604052809291908181526020018280546137c99061580f565b80156138165780601f106137eb57610100808354040283529160200191613816565b820191906000526020600020905b8154815290600101906020018083116137f957829003601f168201915b5050505050908060040160009054906101000a900460ff16908060040160019054906101000a900473ffffffffffffffffffffffffffffffffffffffff16908060050154908060060160009054906101000a900473ffffffffffffffffffffffffffffffffffffffff16908060070160009054906101000a900473ffffffffffffffffffffffffffffffffffffffff16905089565b60005481565b600760205281600052604060002081815481106138cd57600080fd5b90600052602060002001600091509150505481565b60008073ffffffffffffffffffffffffffffffffffffffff16600260008473ffffffffffffffffffffffffffffffffffffffff1673ffffffffffffffffffffffffffffffffffffffff16815260200190815260200160002060000160009054906101000a900473ffffffffffffffffffffffffffffffffffffffff1673ffffffffffffffffffffffffffffffffffffffff16146139825760009050613ac5565b600073ffffffffffffffffffffffffffffffffffffffff16600360008473ffffffffffffffffffffffffffffffffffffffff1673ffffffffffffffffffffffffffffffffffffffff16815260200190815260200160002060000160009054906101000a900473ffffffffffffffffffffffffffffffffffffffff1673ffffffffffffffffffffffffffffffffffffffff1614613a215760019050613ac5565b600073ffffffffffffffffffffffffffffffffffffffff16600460008473ffffffffffffffffffffffffffffffffffffffff1673ffffffffffffffffffffffffffffffffffffffff16815260200190815260200160002060000160009054906101000a900473ffffffffffffffffffffffffffffffffffffffff1673ffffffffffffffffffffffffffffffffffffffff1614613ac05760029050613ac5565b600390505b919050565b613ad26149ad565b6000600260003373ffffffffffffffffffffffffffffffffffffffff1673ffffffffffffffffffffffffffffffffffffffff1681526020019081526020016000206001018054613b219061580f565b905014613b63576040517f08c379a0000000000000000000000000000000000000000000000000000000008152600401613b5a90615f3d565b60405180910390fd5b613b6b6149ad565b33816000019073ffffffffffffffffffffffffffffffffffffffff16908173ffffffffffffffffffffffffffffffffffffffff1681525050828160200181905250600081604001818152505080600260003373ffffffffffffffffffffffffffffffffffffffff1673ffffffffffffffffffffffffffffffffffffffff16815260200190815260200160002060008201518160000160006101000a81548173ffffffffffffffffffffffffffffffffffffffff021916908373ffffffffffffffffffffffffffffffffffffffff1602179055506020820151816001019080519060200190613c5a929190614835565b50604082015181600201559050503373ffffffffffffffffffffffffffffffffffffffff167f3980e1c29ecf2bdfce4e2793ed6efcc338cb00238d58c95de9000480acc0caef84604051613cae9190615f5d565b60405180910390a280915050919050565b613cc7614a36565b6000600360003373ffffffffffffffffffffffffffffffffffffffff1673ffffffffffffffffffffffffffffffffffffffff1681526020019081526020016000206001018054613d169061580f565b905014613d58576040517f08c379a0000000000000000000000000000000000000000000000000000000008152600401613d4f906158b2565b60405180910390fd5b613d60614a36565b33816000019073ffffffffffffffffffffffffffffffffffffffff16908173ffffffffffffffffffffffffffffffffffffffff1681525050828160200181905250600081604001818152505080600360003373ffffffffffffffffffffffffffffffffffffffff1673ffffffffffffffffffffffffffffffffffffffff16815260200190815260200160002060008201518160000160006101000a81548173ffffffffffffffffffffffffffffffffffffffff021916908373ffffffffffffffffffffffffffffffffffffffff1602179055506020820151816001019080519060200190613e4f929190614835565b50604082015181600201559050503373ffffffffffffffffffffffffffffffffffffffff167fc6b3a3cb893680baef98e6f2f73e2f33a36a14eaea0ba521451d6547ba362b6284604051613ea39190615f5d565b60405180910390a280915050919050565b60606000600760008473ffffffffffffffffffffffffffffffffffffffff1673ffffffffffffffffffffffffffffffffffffffff168152602001908152602001600020805480602002602001604051908101604052809291908181526020018280548015613f4157602002820191906000526020600020905b815481526020019060010190808311613f2d575b5050505050905080915050919050565b60036020528060005260406000206000915090508060000160009054906101000a900473ffffffffffffffffffffffffffffffffffffffff1690806001018054613f9a9061580f565b80601f0160208091040260200160405190810160405280929190818152602001828054613fc69061580f565b80156140135780601f10613fe857610100808354040283529160200191614013565b820191906000526020600020905b815481529060010190602001808311613ff657829003601f168201915b5050505050908060020154905083565b60008061402e6149ad565b6140366147fe565b61403e614a36565b6000806001888154811061405557614054615a45565b5b906000526020600020906008020160405180610120016040529081600082015481526020016001820180546140899061580f565b80601f01602080910402602001604051908101604052809291908181526020018280546140b59061580f565b80156141025780601f106140d757610100808354040283529160200191614102565b820191906000526020600020905b8154815290600101906020018083116140e557829003601f168201915b50505050508152602001600282015481526020016003820180546141259061580f565b80601f01602080910402602001604051908101604052809291908181526020018280546141519061580f565b801561419e5780601f106141735761010080835404028352916020019161419e565b820191906000526020600020905b81548152906001019060200180831161418157829003601f168201915b505050505081526020016004820160009054906101000a900460ff1660028111156141cc576141cb614ded565b5b60028111156141de576141dd614ded565b5b81526020016004820160019054906101000a900473ffffffffffffffffffffffffffffffffffffffff1673ffffffffffffffffffffffffffffffffffffffff1673ffffffffffffffffffffffffffffffffffffffff168152602001600582015481526020016006820160009054906101000a900473ffffffffffffffffffffffffffffffffffffffff1673ffffffffffffffffffffffffffffffffffffffff1673ffffffffffffffffffffffffffffffffffffffff1681526020016007820160009054906101000a900473ffffffffffffffffffffffffffffffffffffffff1673ffffffffffffffffffffffffffffffffffffffff1673ffffffffffffffffffffffffffffffffffffffff168152505090506000816080015190506143016149ad565b6143096147fe565b614311614a36565b6000600281111561432557614324614ded565b5b84600281111561433857614337614ded565b5b03614354578460a00151955061434d86611702565b9250614405565b60028081111561436757614366614ded565b5b84600281111561437a57614379614ded565b5b03614396578460e00151955061438f866115b1565b9150614404565b600560008d815260200190815260200160002060018660c001516143ba9190615b7d565b815481106143cb576143ca615a45565b5b9060005260206000200160009054906101000a900473ffffffffffffffffffffffffffffffffffffffff1695506144018661304f565b90505b5b83868484849a509a509a509a509a5050505050505091939590929450565b60606001805480602002602001604051908101604052809291908181526020016000905b828210156146f9578382906000526020600020906008020160405180610120016040529081600082015481526020016001820180546144859061580f565b80601f01602080910402602001604051908101604052809291908181526020018280546144b19061580f565b80156144fe5780601f106144d3576101008083540402835291602001916144fe565b820191906000526020600020905b8154815290600101906020018083116144e157829003601f168201915b50505050508152602001600282015481526020016003820180546145219061580f565b80601f016020809104026020016040519081016040528092919081815260200182805461454d9061580f565b801561459a5780601f1061456f5761010080835404028352916020019161459a565b820191906000526020600020905b81548152906001019060200180831161457d57829003601f168201915b505050505081526020016004820160009054906101000a900460ff1660028111156145c8576145c7614ded565b5b60028111156145da576145d9614ded565b5b81526020016004820160019054906101000a900473ffffffffffffffffffffffffffffffffffffffff1673ffffffffffffffffffffffffffffffffffffffff1673ffffffffffffffffffffffffffffffffffffffff168152602001600582015481526020016006820160009054906101000a900473ffffffffffffffffffffffffffffffffffffffff1673ffffffffffffffffffffffffffffffffffffffff1673ffffffffffffffffffffffffffffffffffffffff1681526020016007820160009054906101000a900473ffffffffffffffffffffffffffffffffffffffff1673ffffffffffffffffffffffffffffffffffffffff1673ffffffffffffffffffffffffffffffffffffffff168152505081526020019060010190614447565b50505050905090565b6005602052816000526040600020818154811061471e57600080fd5b906000526020600020016000915091509054906101000a900473ffffffffffffffffffffffffffffffffffffffff1681565b6000808390505b600183805490506147689190615b7d565b8110156147cd578260018261477d9190615bb1565b8154811061478e5761478d615a45565b5b90600052602060002001548382815481106147ac576147ab615a45565b5b906000526020600020018190555080806147c590615b35565b915050614757565b50818054806147df576147de615f7f565b5b6001900381819060005260206000200160009055905581905092915050565b6040518060600160405280600073ffffffffffffffffffffffffffffffffffffffff16815260200160608152602001600081525090565b8280546148419061580f565b90600052602060002090601f01602090048101928261486357600085556148aa565b82601f1061487c57805160ff19168380011785556148aa565b828001600101855582156148aa579182015b828111156148a957825182559160200191906001019061488e565b5b5090506148b79190614a6d565b5090565b60405180610120016040528060008152602001606081526020016000815260200160608152602001600060028111156148f7576148f6614ded565b5b8152602001600073ffffffffffffffffffffffffffffffffffffffff16815260200160008152602001600073ffffffffffffffffffffffffffffffffffffffff168152602001600073ffffffffffffffffffffffffffffffffffffffff1681525090565b82805482825590600052602060002090810192821561499c5760005260206000209182015b8281111561499b578254825591600101919060010190614980565b5b5090506149a99190614a6d565b5090565b6040518060600160405280600073ffffffffffffffffffffffffffffffffffffffff16815260200160608152602001600081525090565b828054828255906000526020600020908101928215614a255760005260206000209182015b82811115614a24578254825591600101919060010190614a09565b5b509050614a329190614a6d565b5090565b6040518060600160405280600073ffffffffffffffffffffffffffffffffffffffff16815260200160608152602001600081525090565b5b80821115614a86576000816000905550600101614a6e565b5090565b6000604051905090565b600080fd5b600080fd5b600080fd5b600080fd5b6000601f19601f8301169050919050565b7f4e487b7100000000000000000000000000000000000000000000000000000000600052604160045260246000fd5b614af182614aa8565b810181811067ffffffffffffffff82111715614b1057614b0f614ab9565b5b80604052505050565b6000614b23614a8a565b9050614b2f8282614ae8565b919050565b600067ffffffffffffffff821115614b4f57614b4e614ab9565b5b614b5882614aa8565b9050602081019050919050565b82818337600083830152505050565b6000614b87614b8284614b34565b614b19565b905082815260208101848484011115614ba357614ba2614aa3565b5b614bae848285614b65565b509392505050565b600082601f830112614bcb57614bca614a9e565b5b8135614bdb848260208601614b74565b91505092915050565b600060208284031215614bfa57614bf9614a94565b5b600082013567ffffffffffffffff811115614c1857614c17614a99565b5b614c2484828501614bb6565b91505092915050565b600073ffffffffffffffffffffffffffffffffffffffff82169050919050565b6000614c5882614c2d565b9050919050565b614c6881614c4d565b82525050565b600081519050919050565b600082825260208201905092915050565b60005b83811015614ca8578082015181840152602081019050614c8d565b83811115614cb7576000848401525b50505050565b6000614cc882614c6e565b614cd28185614c79565b9350614ce2818560208601614c8a565b614ceb81614aa8565b840191505092915050565b6000819050919050565b614d0981614cf6565b82525050565b6000606083016000830151614d276000860182614c5f565b5060208301518482036020860152614d3f8282614cbd565b9150506040830151614d546040860182614d00565b508091505092915050565b60006020820190508181036000830152614d798184614d0f565b905092915050565b614d8a81614cf6565b8114614d9557600080fd5b50565b600081359050614da781614d81565b92915050565b60008060408385031215614dc457614dc3614a94565b5b6000614dd285828601614d98565b9250506020614de385828601614d98565b9150509250929050565b7f4e487b7100000000000000000000000000000000000000000000000000000000600052602160045260246000fd5b60038110614e2d57614e2c614ded565b5b50565b6000819050614e3e82614e1c565b919050565b6000614e4e82614e30565b9050919050565b614e5e81614e43565b82525050565b600061012083016000830151614e7d6000860182614d00565b5060208301518482036020860152614e958282614cbd565b9150506040830151614eaa6040860182614d00565b5060608301518482036060860152614ec28282614cbd565b9150506080830151614ed76080860182614e55565b5060a0830151614eea60a0860182614c5f565b5060c0830151614efd60c0860182614d00565b5060e0830151614f1060e0860182614c5f565b50610100830151614f25610100860182614c5f565b508091505092915050565b60006020820190508181036000830152614f4a8184614e64565b905092915050565b614f5b81614c4d565b8114614f6657600080fd5b50565b600081359050614f7881614f52565b92915050565b600060208284031215614f9457614f93614a94565b5b6000614fa284828501614f69565b91505092915050565b6000606083016000830151614fc36000860182614c5f565b5060208301518482036020860152614fdb8282614cbd565b9150506040830151614ff06040860182614d00565b508091505092915050565b600060208201905081810360008301526150158184614fab565b905092915050565b600081519050919050565b600082825260208201905092915050565b6000819050602082019050919050565b60006150558383614d00565b60208301905092915050565b6000602082019050919050565b60006150798261501d565b6150838185615028565b935061508e83615039565b8060005b838110156150bf5781516150a68882615049565b97506150b183615061565b925050600181019050615092565b5085935050505092915050565b600060208201905081810360008301526150e6818461506e565b905092915050565b6150f781614c4d565b82525050565b600082825260208201905092915050565b600061511982614c6e565b61512381856150fd565b9350615133818560208601614c8a565b61513c81614aa8565b840191505092915050565b61515081614cf6565b82525050565b600060608201905061516b60008301866150ee565b818103602083015261517d818561510e565b905061518c6040830184615147565b949350505050565b600080600080608085870312156151ae576151ad614a94565b5b600085013567ffffffffffffffff8111156151cc576151cb614a99565b5b6151d887828801614bb6565b94505060206151e987828801614d98565b935050604085013567ffffffffffffffff81111561520a57615209614a99565b5b61521687828801614bb6565b925050606061522787828801614d98565b91505092959194509250565b6000806040838503121561524a57615249614a94565b5b600061525885828601614f69565b925050602061526985828601614d98565b9150509250929050565b60006020820190506152886000830184615147565b92915050565b60006060830160008301516152a66000860182614c5f565b50602083015184820360208601526152be8282614cbd565b91505060408301516152d36040860182614d00565b508091505092915050565b600060208201905081810360008301526152f8818461528e565b905092915050565b60006020828403121561531657615315614a94565b5b600061532484828501614d98565b91505092915050565b600081519050919050565b600082825260208201905092915050565b6000819050602082019050919050565b60006060830160008301516153716000860182614c5f565b50602083015184820360208601526153898282614cbd565b915050604083015161539e6040860182614d00565b508091505092915050565b60006153b58383615359565b905092915050565b6000602082019050919050565b60006153d58261532d565b6153df8185615338565b9350836020820285016153f185615349565b8060005b8581101561542d578484038952815161540e85826153a9565b9450615419836153bd565b925060208a019950506001810190506153f5565b50829750879550505050505092915050565b600060808201905081810360008301526154598187614e64565b9050818103602083015261546d81866153ca565b905081810360408301526154818185614fab565b905081810360608301526154958184614d0f565b905095945050505050565b6154a981614e43565b82525050565b6000610120820190506154c5600083018c615147565b81810360208301526154d7818b61510e565b90506154e6604083018a615147565b81810360608301526154f8818961510e565b905061550760808301886154a0565b61551460a08301876150ee565b61552160c0830186615147565b61552e60e08301856150ee565b61553c6101008301846150ee565b9a9950505050505050505050565b6004811061555b5761555a614ded565b5b50565b600081905061556c8261554a565b919050565b600061557c8261555e565b9050919050565b61558c81615571565b82525050565b60006020820190506155a76000830184615583565b92915050565b600060a0820190506155c260008301886154a0565b6155cf60208301876150ee565b81810360408301526155e18186614fab565b905081810360608301526155f58185614d0f565b90508181036080830152615609818461528e565b90509695505050505050565b600081519050919050565b600082825260208201905092915050565b6000819050602082019050919050565b60006101208301600083015161565a6000860182614d00565b50602083015184820360208601526156728282614cbd565b91505060408301516156876040860182614d00565b506060830151848203606086015261569f8282614cbd565b91505060808301516156b46080860182614e55565b5060a08301516156c760a0860182614c5f565b5060c08301516156da60c0860182614d00565b5060e08301516156ed60e0860182614c5f565b50610100830151615702610100860182614c5f565b508091505092915050565b60006157198383615641565b905092915050565b6000602082019050919050565b600061573982615615565b6157438185615620565b93508360208202850161575585615631565b8060005b858110156157915784840389528151615772858261570d565b945061577d83615721565b925060208a01995050600181019050615759565b50829750879550505050505092915050565b600060208201905081810360008301526157bd818461572e565b905092915050565b60006020820190506157da60008301846150ee565b92915050565b7f4e487b7100000000000000000000000000000000000000000000000000000000600052602260045260246000fd5b6000600282049050600182168061582757607f821691505b60208210810361583a576158396157e0565b5b50919050565b7f54686973206164647265737320697320616c726561647920726567697374657260008201527f65642061732072657461696c6572000000000000000000000000000000000000602082015250565b600061589c602e836150fd565b91506158a782615840565b604082019050919050565b600060208201905081810360008301526158cb8161588f565b9050919050565b6000819050919050565b6000819050919050565b60006159016158fc6158f7846158d2565b6158dc565b614cf6565b9050919050565b615911816158e6565b82525050565b60006040820190508181036000830152615931818561510e565b90506159406020830184615908565b9392505050565b7f4f6e6c792072657461696c6572732063616e20706572666f726d20746869732060008201527f616374696f6e0000000000000000000000000000000000000000000000000000602082015250565b60006159a36026836150fd565b91506159ae82615947565b604082019050919050565b600060208201905081810360008301526159d281615996565b9050919050565b7f50726f6475637420646f6573206e6f7420657869737400000000000000000000600082015250565b6000615a0f6016836150fd565b9150615a1a826159d9565b602082019050919050565b60006020820190508181036000830152615a3e81615a02565b9050919050565b7f4e487b7100000000000000000000000000000000000000000000000000000000600052603260045260246000fd5b7f50726f6475637420686173206265656e2072656c6561736564206f7220736f6c60008201527f6400000000000000000000000000000000000000000000000000000000000000602082015250565b6000615ad06021836150fd565b9150615adb82615a74565b604082019050919050565b60006020820190508181036000830152615aff81615ac3565b9050919050565b7f4e487b7100000000000000000000000000000000000000000000000000000000600052601160045260246000fd5b6000615b4082614cf6565b91507fffffffffffffffffffffffffffffffffffffffffffffffffffffffffffffffff8203615b7257615b71615b06565b5b600182019050919050565b6000615b8882614cf6565b9150615b9383614cf6565b925082821015615ba657615ba5615b06565b5b828203905092915050565b6000615bbc82614cf6565b9150615bc783614cf6565b9250827fffffffffffffffffffffffffffffffffffffffffffffffffffffffffffffffff03821115615bfc57615bfb615b06565b5b828201905092915050565b6000608082019050615c1c6000830187615147565b615c2960208301866150ee565b615c3660408301856150ee565b615c436060830184615147565b95945050505050565b7f4f6e6c79206d616e756661637475726572732063616e20706572666f726d207460008201527f68697320616374696f6e00000000000000000000000000000000000000000000602082015250565b6000615ca8602a836150fd565b9150615cb382615c4c565b604082019050919050565b60006020820190508181036000830152615cd781615c9b565b9050919050565b7f4f6e6c79206d616e756661637475726572732063616e206164642070726f647560008201527f6374000000000000000000000000000000000000000000000000000000000000602082015250565b6000615d3a6022836150fd565b9150615d4582615cde565b604082019050919050565b60006020820190508181036000830152615d6981615d2d565b9050919050565b6000606082019050615d856000830186615147565b615d9260208301856150ee565b615d9f6040830184615147565b949350505050565b7f4f6e6c7920637573746f6d6572732063616e20706572666f726d20746869732060008201527f616374696f6e0000000000000000000000000000000000000000000000000000602082015250565b6000615e036026836150fd565b9150615e0e82615da7565b604082019050919050565b60006020820190508181036000830152615e3281615df6565b9050919050565b7f50726f6475637420686173206e6f74206265656e2072656c6561736564206f7260008201527f20686173206265656e20616c726561647920736f6c6400000000000000000000602082015250565b6000615e956036836150fd565b9150615ea082615e39565b604082019050919050565b60006020820190508181036000830152615ec481615e88565b9050919050565b7f54686973206164647265737320697320616c726561647920726567697374657260008201527f6564206173206d616e7566616374757265720000000000000000000000000000602082015250565b6000615f276032836150fd565b9150615f3282615ecb565b604082019050919050565b60006020820190508181036000830152615f5681615f1a565b9050919050565b60006020820190508181036000830152615f77818461510e565b905092915050565b7f4e487b7100000000000000000000000000000000000000000000000000000000600052603160045260246000fdfea2646970667358221220d66bee65c9e5c9fb5b46f8013f6efd4b1e039f32df755a55b4b298dbe24fe25764736f6c634300080d0033",
  "immutableReferences": {},
  "source": "// SPDX-License-Identifier: MIT\r\npragma solidity >=0.4.22 <0.9.0;\r\n\r\ncontract FoodChain {\r\n    enum Role {\r\n        manufacturer,\r\n        retailer,\r\n        customer,\r\n        not_registered\r\n    }\r\n\r\n    enum Stage {\r\n        manufactured,\r\n        released,\r\n        sold\r\n    }\r\n\r\n    struct Product {\r\n        uint256 id;\r\n        string name;\r\n        uint256 price;\r\n        string ipfs_hash;\r\n        Stage stage;\r\n        address manufacturer;\r\n        uint256 total_retailers;\r\n        address customer;\r\n        address currentOwner;\r\n    }\r\n\r\n    struct Manufacturer {\r\n        address id;\r\n        string name;\r\n        uint256 total_products;\r\n    }\r\n\r\n    struct Retailer {\r\n        address id;\r\n        string name;\r\n        uint256 total_products;\r\n    }\r\n\r\n    struct Customer {\r\n        address id;\r\n        string name;\r\n        uint256 total_orders;\r\n    }\r\n\r\n    uint256 public total_products;\r\n    Product[] public products;\r\n    mapping(address => Manufacturer) public manufacturers;\r\n    mapping(address => Retailer) public retailers;\r\n    mapping(address => Customer) public customers;\r\n    mapping(uint256 => address[]) public Product_Retailers;\r\n\r\n    mapping(address => uint256[]) public manufacturer_inventory;\r\n    mapping(address => uint256[]) public retailer_inventory;\r\n    mapping(address => uint256[]) public customer_orders;\r\n\r\n    address[] address_array;\r\n\r\n    event FoodChain_deployed(string _message);\r\n    event ManufacturerRegistered(address indexed manufacturerId, string name);\r\n    event RetailerRegistered(address indexed retailerId, string name);\r\n    event CustomerRegistered(\r\n        address indexed customerId,\r\n        string name,\r\n        uint256 totalOrders\r\n    );\r\n    event Product_Added(\r\n        uint256 _productId,\r\n        address _manufacturerAddress,\r\n        uint256 _time\r\n    );\r\n    event Product_Released(\r\n        uint256 _productId,\r\n        address _manufacturerAddress,\r\n        address _retailerAddress,\r\n        uint256 _time\r\n    );\r\n    event Product_Sold(\r\n        uint256 _productId,\r\n        address _retailerAddress,\r\n        address _customerAddress,\r\n        uint256 _time\r\n    );\r\n\r\n    constructor() {\r\n        total_products = 0;\r\n        emit FoodChain_deployed(\"DeTrace has been deployed\");\r\n    }\r\n\r\n    modifier isManufacturer(address _manufacturerAddress) {\r\n        require(\r\n            manufacturers[_manufacturerAddress].id != address(0x0),\r\n            \"Only manufacturers can perform this action\"\r\n        );\r\n        _;\r\n    }\r\n\r\n    modifier isRetailer(address _retailerAddress) {\r\n        require(\r\n            retailers[_retailerAddress].id != address(0x0),\r\n            \"Only retailers can perform this action\"\r\n        );\r\n        _;\r\n    }\r\n\r\n    modifier isCustomer(address _customerAddress) {\r\n        require(\r\n            customers[_customerAddress].id != address(0x0),\r\n            \"Only customers can perform this action\"\r\n        );\r\n        _;\r\n    }\r\n\r\n    function removeElement(\r\n        uint256 index,\r\n        uint256[] storage array\r\n    ) internal returns (uint256[] storage) {\r\n        for (uint256 i = index; i < array.length - 1; i++) {\r\n            array[i] = array[i + 1];\r\n        }\r\n        array.pop();\r\n        return array;\r\n    }\r\n\r\n    function getProducts() public view returns (Product[] memory) {\r\n        return products;\r\n    }\r\n\r\n    function addManufacturer(\r\n        string memory _name\r\n    ) public payable returns (Manufacturer memory) {\r\n        require(\r\n            bytes(manufacturers[msg.sender].name).length == 0,\r\n            \"This address is already registered as manufacturer\"\r\n        );\r\n\r\n        Manufacturer memory _manufacturer;\r\n        _manufacturer.id = msg.sender;\r\n        _manufacturer.name = _name;\r\n        _manufacturer.total_products = 0;\r\n\r\n        manufacturers[msg.sender] = _manufacturer;\r\n\r\n        emit ManufacturerRegistered(msg.sender, _name);\r\n        return _manufacturer;\r\n    }\r\n\r\n    function addRetailer(\r\n        string memory _name\r\n    ) public payable returns (Retailer memory) {\r\n        require(\r\n            bytes(retailers[msg.sender].name).length == 0,\r\n            \"This address is already registered as retailer\"\r\n        );\r\n\r\n        Retailer memory _retailer;\r\n        _retailer.id = msg.sender;\r\n        _retailer.name = _name;\r\n        _retailer.total_products = 0;\r\n\r\n        retailers[msg.sender] = _retailer;\r\n        emit RetailerRegistered(msg.sender, _name);\r\n        return _retailer;\r\n    }\r\n\r\n    function addCustomer(string memory _name) public returns (Customer memory) {\r\n        require(\r\n            bytes(customers[msg.sender].name).length == 0,\r\n            \"This address is already registered as retailer\"\r\n        );\r\n\r\n        Customer memory _customer;\r\n        _customer.id = msg.sender;\r\n        _customer.name = _name;\r\n\r\n        customers[msg.sender] = _customer;\r\n        emit CustomerRegistered(msg.sender, _name, 0);\r\n        return _customer;\r\n    }\r\n\r\n    function addProduct(\r\n        string memory _name,\r\n        uint256 _price,\r\n        string memory _ipfs_hash,\r\n        uint256 _time\r\n    ) public payable isManufacturer(msg.sender) returns (Product memory) {\r\n        require(\r\n            manufacturers[msg.sender].id != address(0),\r\n            \"Only manufacturers can add product\"\r\n        );\r\n\r\n        //get the manufacturer\r\n        Manufacturer memory _manufacturer = manufacturers[msg.sender];\r\n\r\n        //create the product\r\n        Product memory _product;\r\n        _product.id = total_products;\r\n        _product.name = _name;\r\n        _product.price = _price;\r\n        _product.ipfs_hash = _ipfs_hash;\r\n        _product.manufacturer = _manufacturer.id;\r\n        _product.stage = Stage.manufactured;\r\n        _product.total_retailers = 0;\r\n        _product.currentOwner = msg.sender;\r\n\r\n        //add the product to records\r\n        products.push(_product);\r\n        total_products += 1;\r\n\r\n        //add the product to the manufacturer inventory records\r\n        manufacturer_inventory[msg.sender].push(_product.id);\r\n        _manufacturer.total_products += 1;\r\n        manufacturers[msg.sender] = _manufacturer;\r\n\r\n        //Add into proper mappings\r\n        Product_Retailers[_product.id] = address_array;\r\n\r\n        emit Product_Added(_product.id, msg.sender, _time);\r\n\r\n        return _product;\r\n    }\r\n\r\n    function releaseProduct(\r\n        uint256 _productId,\r\n        uint256 _time\r\n    ) public payable isRetailer(msg.sender) returns (Product memory) {\r\n        require(_productId < total_products, \"Product does not exist\");\r\n        //Get the product\r\n        Product memory _product = products[_productId];\r\n        // payable(_product.manufacturer).transfer(msg.value);\r\n        //check if the product has already been released or manufactured\r\n        require(\r\n            _product.stage == Stage.manufactured,\r\n            \"Product has been released or sold\"\r\n        );\r\n\r\n        //Shift ownership from manufacturer to retailer\r\n        Product_Retailers[_productId].push(msg.sender);\r\n        _product.total_retailers++;\r\n        _product.stage = Stage.released;\r\n        _product.currentOwner = msg.sender;\r\n\r\n        //Remove the element from the inventory of manufacturer and update count\r\n        Manufacturer memory _manufacturer = manufacturers[\r\n            _product.manufacturer\r\n        ];\r\n        for (uint256 i = 0; i < _manufacturer.total_products; i++) {\r\n            if (\r\n                manufacturer_inventory[_product.manufacturer][i] == _productId\r\n            ) {\r\n                manufacturer_inventory[_product.manufacturer] = removeElement(\r\n                    i,\r\n                    manufacturer_inventory[_product.manufacturer]\r\n                );\r\n                // delete manufacturer_inventory[_product.manufacturer][i];\r\n                break;\r\n            }\r\n        }\r\n        _manufacturer.total_products -= 1;\r\n        manufacturers[_product.manufacturer] = _manufacturer;\r\n\r\n        //Add the product to retailer's inventory and update count\r\n        retailer_inventory[msg.sender].push(_product.id);\r\n        Retailer memory _retailer = retailers[msg.sender];\r\n        _retailer.total_products += 1;\r\n        retailers[msg.sender] = _retailer;\r\n\r\n        //save the updated product details\r\n        products[_productId] = _product;\r\n\r\n        emit Product_Released(\r\n            _productId,\r\n            _product.manufacturer,\r\n            msg.sender,\r\n            _time\r\n        );\r\n\r\n        return _product;\r\n    }\r\n\r\n    function buyProduct(\r\n        uint256 _productId,\r\n        uint256 _time\r\n    ) public payable isCustomer(msg.sender) returns (Product memory) {\r\n        require(_productId < total_products, \"Product does not exist\");\r\n\r\n        //Get the product\r\n        Product memory _product = products[_productId];\r\n\r\n        //check if the product has already been released or manufactured\r\n        require(\r\n            _product.stage == Stage.released,\r\n            \"Product has not been released or has been already sold\"\r\n        );\r\n\r\n        //Get the details of the retailer who is selling\r\n        address _retailerId = Product_Retailers[_product.id][\r\n            _product.total_retailers - 1\r\n        ];\r\n        Retailer memory _retailer = retailers[_retailerId];\r\n\r\n        //Get the details of the customer\r\n        Customer memory _customer = customers[msg.sender];\r\n\r\n        //Shift ownership from retailer to customer\r\n        _product.stage = Stage.sold;\r\n        _product.customer = _customer.id;\r\n        _product.currentOwner = msg.sender;\r\n\r\n        //Remove the element from the inventory of retailer and update count\r\n        address _current_retailer_address = Product_Retailers[_productId][\r\n            Product_Retailers[_productId].length - 1\r\n        ];\r\n        Retailer memory _current_retailer = retailers[\r\n            _current_retailer_address\r\n        ];\r\n        for (uint256 i = 0; i < _current_retailer.total_products; i++) {\r\n            if (\r\n                retailer_inventory[_current_retailer_address][i] == _productId\r\n            ) {\r\n                retailer_inventory[_current_retailer_address] = removeElement(\r\n                    i,\r\n                    retailer_inventory[_current_retailer_address]\r\n                );\r\n                // delete retailer_inventory[_current_retailer_address][i];\r\n                break;\r\n            }\r\n        }\r\n        _current_retailer.total_products -= 1;\r\n        retailers[_current_retailer_address] = _current_retailer;\r\n\r\n        //Add the product to customer's orders and update count\r\n        customer_orders[msg.sender].push(_product.id);\r\n        _customer.total_orders += 1;\r\n        customers[msg.sender] = _customer;\r\n\r\n        //save the updated product details\r\n        products[_productId] = _product;\r\n\r\n        emit Product_Sold(_productId, _retailer.id, msg.sender, _time);\r\n\r\n        return _product;\r\n    }\r\n\r\n    function getManufacturerDetails(\r\n        address _manufacturerId\r\n    ) public view returns (Manufacturer memory) {\r\n        Manufacturer memory _manufacturer = manufacturers[_manufacturerId];\r\n        return _manufacturer;\r\n    }\r\n\r\n    function getManufacturerInventory(\r\n        address _manufacturerId\r\n    ) public view returns (uint256[] memory) {\r\n        uint256[] memory _product_ids = manufacturer_inventory[_manufacturerId];\r\n        return _product_ids;\r\n    }\r\n\r\n    function getRetailerDetails(\r\n        address _retailerId\r\n    ) public view returns (Retailer memory) {\r\n        Retailer memory _retailer = retailers[_retailerId];\r\n        return _retailer;\r\n    }\r\n\r\n    function getRetailerInventory(\r\n        address _retailerId\r\n    ) public view returns (uint256[] memory) {\r\n        uint256[] memory _product_ids = retailer_inventory[_retailerId];\r\n        return _product_ids;\r\n    }\r\n\r\n    function getCustomerDetails(\r\n        address _customerId\r\n    ) public view returns (Customer memory) {\r\n        Customer memory _customer = customers[_customerId];\r\n        return _customer;\r\n    }\r\n\r\n    function getCustomerOrders(\r\n        address _customerId\r\n    ) public view returns (uint256[] memory) {\r\n        uint256[] memory _product_ids = customer_orders[_customerId];\r\n        return _product_ids;\r\n    }\r\n\r\n    function getProductDetails(\r\n        uint256 _productId\r\n    )\r\n        public\r\n        view\r\n        returns (\r\n            Product memory,\r\n            Retailer[] memory,\r\n            Manufacturer memory,\r\n            Customer memory\r\n        )\r\n    {\r\n        //Get the product\r\n        Product memory _product = products[_productId];\r\n\r\n        //Get all the retailers addresses\r\n        address[] memory _retailer_addresses = Product_Retailers[_productId];\r\n\r\n        //Initialize an empty reailters array\r\n        Retailer[] memory _retailers = new Retailer[](_product.total_retailers);\r\n\r\n        //Get the manufacturer\r\n        Manufacturer memory _manufacturer = getManufacturerDetails(\r\n            _product.manufacturer\r\n        );\r\n\r\n        //Get the customer\r\n        Customer memory _customer = getCustomerDetails(_product.customer);\r\n\r\n        //Push all the retailers in the _retailers array\r\n        for (uint256 i = 0; i < _retailer_addresses.length; i++) {\r\n            _retailers[i] = getRetailerDetails(_retailer_addresses[i]);\r\n        }\r\n        return (_product, _retailers, _manufacturer, _customer);\r\n    }\r\n\r\n    function getCurrentStatus(\r\n        uint256 _productId\r\n    )\r\n        public\r\n        view\r\n        returns (\r\n            Stage,\r\n            address,\r\n            Manufacturer memory,\r\n            Customer memory,\r\n            Retailer memory\r\n        )\r\n    {\r\n        //Initilize an empty address for owner\r\n        address _owner_address;\r\n\r\n        //Get product details\r\n        Product memory _product = products[_productId];\r\n\r\n        //Get product stage\r\n        Stage _stage = _product.stage;\r\n\r\n        //Instantiate each user\r\n        Manufacturer memory _manufacturer;\r\n        Customer memory _customer;\r\n        Retailer memory _retailer;\r\n\r\n        //Check for each stage\r\n        if (_stage == Stage.manufactured) {\r\n            _owner_address = _product.manufacturer;\r\n            _manufacturer = getManufacturerDetails(_owner_address);\r\n        } else if (_stage == Stage.sold) {\r\n            _owner_address = _product.customer;\r\n            _customer = getCustomerDetails(_owner_address);\r\n        } else {\r\n            _owner_address = Product_Retailers[_productId][\r\n                _product.total_retailers - 1\r\n            ];\r\n            _retailer = getRetailerDetails(_owner_address);\r\n        }\r\n        return (_stage, _owner_address, _manufacturer, _customer, _retailer);\r\n    }\r\n\r\n    function getUserType(address _user) public view returns (Role) {\r\n        if (manufacturers[_user].id != address(0x0)) return Role.manufacturer;\r\n\r\n        if (retailers[_user].id != address(0x0)) return Role.retailer;\r\n\r\n        if (customers[_user].id != address(0x0)) return Role.customer;\r\n\r\n        return Role.not_registered;\r\n    }\r\n}\r\n",
  "sourcePath": "C:\\Users\\sg976\\OneDrive\\Desktop\\Food-Supply-Chain\\Blockchain\\contracts\\FoodChain.sol",
  "compiler": {
    "name": "solc",
    "version": "0.8.13+commit.abaa5c0e.Emscripten.clang"
  },
  "schemaVersion": "3.4.16",
  "updatedAt": "2024-03-15T07:22:21.107Z",
  "devdoc": {
    "kind": "dev",
    "methods": {},
    "version": 1
  },
  "userdoc": {
    "kind": "user",
    "methods": {},
    "version": 1
  }
}